:020000040800F2
:1000000050070020910100084D07000877050008FF
:100010004907000849040008070E00080000000016
:10002000000000000000000000000000ED080008D3
:100030004D04000800000000D5070008D909000899
:10004000AB010008AB010008AB010008AB010008E0
:10005000AB010008AB010008AB010008AB010008D0
:10006000AB010008AB010008AB010008AB010008C0
:10007000AB010008AB010008AB010008AB010008B0
:10008000AB010008AB010008AB010008AB010008A0
:10009000AB010008AB010008AB010008AB01000890
:1000A000AB010008AB010008AB010008AB01000880
:1000B000AB0100083D0A0008AB010008AB010008D5
:1000C000AB010008AB010008AB010008AB01000860
:1000D000AB010008E50B0008AB010008AB0100080C
:1000E000AB010008AB010008AB01000800F002F80A
:1000F00000F03FF80AA090E8000C82448344AAF183
:100100000107DA4501D100F034F8AFF2090EBAE880
:100110000F0013F0010F18BFFB1A43F0010318473B
:10012000D00D0000F00D0000103A24BF78C878C14F
:10013000FAD8520724BF30C830C144BF04680C60ED
:10014000704700000023002400250026103A28BF35
:1001500078C1FBD8520728BF30C148BF0B60704739
:10016000642900F07780002070471FB51FBD10B5CF
:1001700010BD00F037F91146FFF7F7FF00F056FE0B
:1001800000F055F903B4FFF7F2FF03BC00F03DFEA9
:100190000948804709480047FEE7FEE7FEE7FEE71B
:1001A000FEE7FEE7FEE7FEE7FEE7FEE70448054957
:1001B000054A064B70470000DD090008ED00000805
:1001C0005001002050070020500300205003002061
:1001D000704700000FB4044910B503AA029800F05C
:1001E000D3F810BC5DF814FB0C0000202DE9F041A1
:1001F0000E460446002020622046E168884730B35E
:10020000252805D0D4E901219047206A401CF2E757
:10021000E168204600278847050018D0A5F1410075
:10022000192802D820354FF4006732462946204667
:100230002760FFF795FF40B1012804D0F61D26F096
:1002400007060836D8E7361DD6E72846DAE7206ADB
:10025000BDE8F0812DE9F0410646002410687529BB
:10026000314616A510D0AFF30080002802DA4042D4
:1002700013A507E031688A0701D512A502E04907F6
:1002800004D511A5012401E0AFF3008000210A226A
:1002900006F1240709E0B0FBF2FCB0FBF2F302FB2D
:1002A0001C00303078541846491C0028F3D12346EE
:1002B0002A463046BDE8F04100F00CB800000000CE
:1002C0002D0000002B000000200000007047704748
:1002D000704770472DE9F0470D469946924604460F
:1002E00000F124080168880604D5E06921F01001B6
:1002F000216000E00120A84201DD471B00E000274B
:10030000A1697A1902EB0900081AA0612078C006D9
:1003100002D42046AFF30080002608E0D4E9012192
:100320001AF806009047206A401C761C20624E4551
:10033000F4DB2078C0060AD52046AFF3008006E043
:10034000D4E9012130209047206A401C2062381EE9
:10035000A7F10107F4DC07E0D4E9012118F8050052
:100360009047206A401C2062281EA5F10105F3DC9D
:100370002046AFF300802078000602D50220BDE8B9
:10038000F0870120FBE70000074B70B50D467B446A
:1003900000F011F80446284600F020F810B14FF0A4
:1003A000FF3070BD204670BD7F0A000001694A1C05
:1003B00002610878704700B58FB0CDE901310021A6
:1003C000059105497944CDE9031011466846FFF7C8
:1003D0000DFF0FB000BD0000E5FFFFFF007B00F048
:1003E00080007047754600F02BF8AE460500694660
:1003F000534620F00700854618B020B5FFF7D6FE1B
:10040000BDE820404FF000064FF000074FF0000815
:100410004FF0000B21F00701AC46ACE8C009ACE896
:10042000C009ACE8C009ACE8C0098D46704710B5FA
:100430000446AFF300802046BDE81040FFF7A2BE9F
:1004400000487047F000002000BFFEE770472DE92C
:10045000F04102460025002600200023002400274A
:1004600091F803C00CF00F0591F803C00CF0100CCC
:10047000BCF1000F03D091F802C04CEA050591F8D9
:1004800000C0BCF1000F31D0146800202BE04FF009
:10049000010C0CFA00F3B1F800C00CEA03069E420E
:1004A00020D183004FF00F0C0CFA03F7BC4305FA80
:1004B00003FC4CEA040491F803C0BCF1280F06D1F8
:1004C0004FF0010C0CFA00FCC2F814C00AE091F8DD
:1004D00003C0BCF1480F05D14FF0010C0CFA00FC31
:1004E000C2F810C0401C0828D1D31460B1F800C075
:1004F000BCF1FF0F34DD546800202EE000F1080C41
:100500004FF0010808FA0CF3B1F800C00CEA03063A
:100510009E4221D183004FF00F0C0CFA03F7BC432D
:1005200005FA03FC4CEA040491F803C0BCF1280F5F
:1005300005D100F1080C08FA0CF8C2F8148091F803
:1005400003C0BCF1480F07D100F1080C4FF00108BF
:1005500008FA0CF8C2F81080401C0828CED354606A
:10056000BDE8F0810246002093680B400BB10120EA
:1005700000E00020704700BFFEE7000010B506490C
:100580008868804718B900200349887002E001207C
:100590000149887010BD00000000002008B501214D
:1005A000042000F029F90120ADF8000048208DF862
:1005B000030069460148FFF74AFF08BD00080140F3
:1005C00010B501210148FFF7CDFF10BD0008014023
:1005D00010B5FFF7D3FF3A48C07830B1012812D0E8
:1005E00002281ED0032868D14FE03548807828B90A
:1005F00001203349C8700020087103E00020304911
:10060000C87008715AE02E48807828B902202C4919
:10061000C8700020087103E000202949C8700871E3
:100620004CE02748807870B92548008832280ADBDA
:1006300024A0FFF7CFFD0020214908800320C870C7
:100640000020087120E01E48807890B91C4800887E
:1006500032280EDA1A48018822A0FFF7BBFD18489D
:100660000088401C164908800220C87000200871CC
:100670000AE0134801881FA0FFF7ACFD00201049D5
:100680000880C8700120087118E00EA0FFF7A2FDD5
:100690000B48807848B922A0FFF79CFD0320084949
:1006A000C87000200871088006E000200449C87066
:1006B000022008710020088000E000BF00BF10BDCC
:1006C000000000204B45595F5374617475735F439C
:1006D0006F6E6669726D50726573734C6F6E670DE5
:1006E0000A000000BCCCD0F8B0B4CFC22025640D05
:1006F0000A000000CDBBC8BB6767A3ACB0B4B6CCE2
:10070000C1CBA3ACCEB4B4EFB5BDB3A4B0B4CAB141
:10071000BCE4A3ACCEAAB6CCB0B42025640D0A00CC
:10072000D2BBD6B1B0B4D7C5204B45595F53746125
:100730007475735F436F6E6669726D507265737323
:100740004C6F6E670D0A000000BFFEE770470000A7
:1007500070B5002100230F22C47804B3154C24681F
:1007600004F4E064C4F5E064210AC1F10403CA4062
:10077000447804FA03F184781440214309010E4CB3
:100780000678A155047804F01F050124AC400578D3
:100790006D11AD0005F1E025C5F8004109E00478D0
:1007A00004F01F050124AC40044D0678761145F88D
:1007B000264070BD0CED00E000E400E080E100E0C8
:1007C00002490143024A1160704700000000FA0527
:1007D0000CED00E07047000029B1064AD2690243DF
:1007E000044BDA6104E0034AD2698243014BDA61C7
:1007F000704700000010024029B1064A9269024386
:10080000044B9A6104E0034A92698243014B9A6166
:10081000704700000010024030B500210022002483
:1008200000232D4D6D6805F00C0121B1042905D080
:10083000082923D105E0294D056022E0274D0560F8
:100840001FE0254D6D6805F47012234D6D6805F4A9
:100850008034022505EB92421CB9214D55430560B9
:100860000BE01D4D6D6805F400351DB11C4D554361
:10087000056002E0194D5543056002E0174D056023
:1008800000BF00BF144D6D6805F0F0010909154D5A
:100890006B5C0568DD4045600F4D6D6805F4E061F7
:1008A000090A104D6B5C4568DD4085600A4D6D6836
:1008B00005F46051C90A0B4D6B5C4568DD40C560AD
:1008C000054D6D6805F44041890B074D6B5CC568AB
:1008D000B5FBF3F5056130BD0010024000127A004F
:1008E00000093D001200002022000020704710B5D2
:1008F00000F002F810BD00000CB50020019000903F
:100900003348006840F480303149086000BF304807
:10091000006800F4003000900198401C019000989D
:1009200018B90198B0F5A06FF1D12948006800F41A
:10093000003010B10120009001E0002000900098EC
:10094000012843D12348006840F010002149086085
:100950000846006820F0030008600846006840F080
:10096000020008601A484068194948600846406813
:1009700048600846406840F4806048600846406827
:1009800020F47C1048600846406840F4E810486055
:100990000846006840F08070086000BF0C4800689E
:1009A00000F000700028F9D00948406820F00300EA
:1009B000074948600846406840F00200486000BFB0
:1009C0000348406800F00C000828F9D10CBD000075
:1009D00000100240002002407047000010B513488C
:1009E000006840F00100114908600846406810495D
:1009F00008400E494860084600680E4908400B4907
:100A000008600846006820F48020086008464068B6
:100A100020F4FE0048604FF41F008860FFF767FF76
:100A20004FF000600449086010BD00000010024053
:100A30000000FFF8FFFFF6FE08ED00E010B5012111
:100A40000C4800F062F898B101210A4800F04EF815
:100A5000FFF7BEFD08480079012802D107A0FFF783
:100A6000B9FB05480079022802D106A0FFF7B2FBC6
:100A700010BD00000004004000000020B5A5BBF739
:100A80000D0A0000B3A4B0B40D0A00007FB50546FE
:100A90000C4601210220FFF79FFEADF80850ADF88B
:100AA00004400020ADF80A00ADF8060001A90E4888
:100AB00000F046F8012211460B4800F037F81D20DF
:100AC0008DF8000000208DF8010003208DF8020051
:100AD00001208DF803006846FFF73AFE0121024825
:100AE00000F007F87FBD000000040040CA43028206
:100AF000704721B1028842F00102028004E00288BE
:100B00004FF6FE731A400280704730B5024600204F
:100B100000230024158A05EA0103958905EA0104EA
:100B200013B10CB1012000E0002030BD1AB183895F
:100B30000B43838102E083898B43838170470000EC
:100B4000002202881D4B98420ED01D4B98420BD0BC
:100B5000B0F1804F08D01B4B984205D01A4B9842F9
:100B600002D01A4B984204D14FF68F731A404B882B
:100B70001A43174B984207D0164B984204D04FF6B1
:100B8000FF431A40CB881A4302808B8883850B88E9
:100B900003850A4B98420BD0094B984208D00E4B64
:100BA000984205D00D4B984202D00D4B984201D18E
:100BB0000B7A03860123838270470000002C0140DA
:100BC000003401400004004000080040000C0040D8
:100BD000001000400014004000400140004401406B
:100BE0000048014010B540F225511D4800F04AF878
:100BF00010B31B4800F002F9C4B21A48008800F490
:100C00000040C8B91748008800F4804060B10A2C41
:100C100003D000201349088020E01248008840F4E7
:100C200000401049088019E00D2C06D10D480088BD
:100C300040F480400B49088010E00A480088C0F367
:100C40000D0009490C5407480088401C05490880DC
:100C500008460088C72801DD0020088010BD00007C
:100C600000380140100000202800002021B18289B6
:100C700042F40052828104E082894DF6FF731A40EB
:100C80008281704770B502460024002300250020B1
:100C900040F66A16B14200D100BFC1F3421501F01F
:100CA0001F03012606FA03F3012D02D19689334072
:100CB00006E0022D02D1168A334001E0968A3340C5
:100CC0000C12012606FA04F41688344013B10CB154
:100CD000012000E0002070BDF0B50346002400268E
:100CE0000025002040F66A17B94200D100BF18461F
:100CF000C1F3421401F01F06012707FA06F5012C83
:100D000001D10C3004E0022C01D1103000E014308D
:100D10001AB107682F43076002E00768AF43076016
:100D2000F0BD00002DE9F04786B005460E460024D0
:100D3000A24600BFA1460027B08900B100BF2F46E0
:100D40002C8A4CF6FF700440F08804432C82AC8956
:100D50004EF6F3100440B088318908437189084386
:100D60000443AC81AC8A4FF6FF400440B089044391
:100D7000AC8201A8FFF750FD1F48874202D1DDF881
:100D800010A001E0DDF80CA0A88900F4004040B1FB
:100D90000AEBCA0000EB0A1031684900B0FBF1F819
:100DA00007E00AEBCA0000EB0A1031688900B0FBCB
:100DB000F1F86420B8FBF0F004012009642101FB84
:100DC0001089A88900F4004040B1322000EBC9002E
:100DD000B0FBF1F000F00700044308E0322000EB24
:100DE00009106421B0FBF1F000F00F0004432C81E6
:100DF00006B0BDE8F0870000003801400146888851
:100E0000C0F30800704700BFFEE7014600BF70470F
:100E100000BF054A128802F04002002AF9D0C2B28F
:100E2000014B1B1D1A807047003801404FF4A06031
:100E3000FFF7C6FC4FF4E13000F00AF841F61F411D
:100E4000C720FFF723FEFFF7A9FB00BFFEE7000066
:100E500010B586B00446012144F20400FFF7CCFC33
:100E60004FF40070ADF8140003208DF81600182020
:100E70008DF8170005A91C48FFF7E9FA4FF48060C8
:100E8000ADF8140004208DF8170005A91648FFF7E7
:100E9000DEFA25208DF8000003208DF801008DF882
:100EA000020001208DF803006846FFF751FC019411
:100EB0000020ADF80800ADF80A00ADF80C00ADF860
:100EC00010000C20ADF80E0001A90848FFF72AFF1A
:100ED000012240F225510548FFF7FEFE012103489B
:100EE000FFF7C4FE06B010BD000801400038014005
:100EF000100F000800000020280000002801000852
:100F0000380F0008280000202807000044010008CE
:100F10000000010000000000C10500080000000002
:100F200000000000000001020304010203040607A0
:080F3000080902040608000094
:04000005080001915D
:00000001FF
